:030000000202C336
:0C02C300787FE4F6D8FD75810E0202AAD7
:10001E00FC2401F4FC2401F4FC2401F4FC2401F47E
:10002E00FCEF01F4FCEF01F4FCEF01F4FCEF01F442
:10003E00FC8F01F4FC8F01F4FC8F01F4FC8F01F4B2
:10004E00FD6C01F4FD6C01F4FD6C01F4FD6C01F42A
:10005E00FDB401F4FDB401F4FDB401F4FDB401F4FA
:10006E00FDB401F4FDB401F4FDB401F4FDB401F4EA
:10007E00FC8F00FAFC2400FAFBE900FAFAD900FA28
:10008E00FB6800FAFB6800FAFB6800FAFCEF00FA66
:10009E00FC8F00FAFC2400FAFBE900FAFBE900FAF7
:1000AE00FBE900FAFC8F00FAFC2400FAFBE900FAE7
:1000BE00FB6800FAFE1200FAFDF400FAFE1200FAD6
:1000CE00FDF400FAFE1200FAFB6800FAFE1200FAC6
:1000DE00FDF400FAFE1200FAFDF400FAFE1200FA28
:1000EE00FB6800FAFB6800FAFB6800FAFB6800FA8E
:1000FE00FCEF00FAFC8F00FAFC2400FAFBE900FA90
:10010E00FBE900FAFBE900FAFC8F00FAFC2400FA86
:10011E00FBE900FAFB6800FAFE1200FAFDF400FAA1
:10012E00FE1200FAFDF400FAFE1200FAFB6800FA65
:10013E00FE1200FAFDF400FAFE1200FAFDF400FAC7
:10014E00FE1200FAFB6800FAFB6800FAFB6800FA80
:10015E00FB6800FAFCEF00FAFC8F00FAFC2400FAB0
:10016E00FBE900FAFBE900FAFBE900FAFC8F00FA62
:10017E00FC2400FAFBE900FAFB6800FAFE1200FA12
:10018E00FDF400FAFE1200FAFDF400FAFE1200FA77
:10019E00FB6800FAFE1200FAFDF400FAFE1200FAF5
:1001AE00FDF400FAFE1200FAFB6800FAFB6800FA92
:0401BE00000000003D
:03001B00020003DD
:0D000300C28E850D8D850E8BD28EB2B63269
:10029100758CFC758A77D28C308DFDC28CC28DEF46
:0902A1001F70011E144E70E822CA
:10025E001201C245F060131201C2FDACF0ECF50DB7
:10026E008D0E758DFF758BF0D28E9000021201ED02
:10027E00FFAEF0120291C28EC28FD2B67F057E0003
:03028E00020291D8
:060225008B088A09890A1A
:10022B00E4F50BF50CE50CAE0B7802C333CE33CEF5
:10023B00D8F9AB08250AF9E5093EFA90000212013C
:10024B00ED45F0600D12025E050CE50C70D7050B49
:02025B0080D34E
:01025D00227E
:1002AA00758911D2ABD2AF7BFF7A00791E12022573
:0902BA007F647E0012029180EEC7
:1001C200BB010A89828A83E0F5F0A3E02250068708
:1001D200F009E71922BBFE07E3F5F009E3192289CA
:0B01E200828A83E493F5F074019322FD
:1001ED00BB0110E58229F582E5833AF583E0F5F050
:1001FD00A3E0225009E92582F886F008E622BBFE2D
:10020D000AE92582F8E2F5F008E222E5832AF58372
:08021D00E993F5F0A3E9932237
:00000001FF
